{
	"_format": "hh-sol-artifact-1",
	"contractName": "Randomness",
	"sourceName": "contracts/Randomness.sol",
	"abi": [
		{
			"inputs": [],
			"stateMutability": "nonpayable",
			"type": "constructor"
		},
		{
			"anonymous": false,
			"inputs": [
				{
					"components": [
						{
							"internalType": "address",
							"name": "player",
							"type": "address"
						},
						{
							"internalType": "uint8",
							"name": "playerGuess",
							"type": "uint8"
						},
						{
							"internalType": "uint8",
							"name": "randomNumber",
							"type": "uint8"
						}
					],
					"indexed": false,
					"internalType": "struct Randomness.Game",
					"name": "game",
					"type": "tuple"
				}
			],
			"name": "Result",
			"type": "event"
		},
		{
			"inputs": [
				{
					"internalType": "uint8",
					"name": "guess",
					"type": "uint8"
				}
			],
			"name": "getRandomNumber",
			"outputs": [
				{
					"internalType": "bytes32",
					"name": "requestId",
					"type": "bytes32"
				}
			],
			"stateMutability": "payable",
			"type": "function"
		},
		{
			"inputs": [
				{
					"internalType": "bytes32",
					"name": "requestId",
					"type": "bytes32"
				},
				{
					"internalType": "uint256",
					"name": "randomness",
					"type": "uint256"
				}
			],
			"name": "rawFulfillRandomness",
			"outputs": [],
			"stateMutability": "nonpayable",
			"type": "function"
		},
		{
			"inputs": [
				{
					"internalType": "bytes32",
					"name": "",
					"type": "bytes32"
				}
			],
			"name": "requests",
			"outputs": [
				{
					"internalType": "address",
					"name": "player",
					"type": "address"
				},
				{
					"internalType": "uint8",
					"name": "playerGuess",
					"type": "uint8"
				},
				{
					"internalType": "uint8",
					"name": "randomNumber",
					"type": "uint8"
				}
			],
			"stateMutability": "view",
			"type": "function"
		}
	],
	"bytecode": "0x60c06040527301be23585060835e02b77ef475b0cc51aa1e0709600360006101000a81548173ffffffffffffffffffffffffffffffffffffffff021916908373ffffffffffffffffffffffffffffffffffffffff16021790555034801561006557600080fd5b5073b3dccb4cf7a26f6cf6b120cf5a73875b7bbc655b600360009054906101000a900473ffffffffffffffffffffffffffffffffffffffff168173ffffffffffffffffffffffffffffffffffffffff1660a08173ffffffffffffffffffffffffffffffffffffffff1660601b815250508073ffffffffffffffffffffffffffffffffffffffff1660808173ffffffffffffffffffffffffffffffffffffffff1660601b8152505050507f2ed0feb3e7fd2022120aa84fab1945545a9f2ffc9076fd6156fa96eaff4c131160001b60018190555067016345785d8a000060028190555060805160601c60a05160601c6110c461017f60003960008181610334015261047201526000818160d8015261043601526110c46000f3fe6080604052600436106100345760003560e01c80630651f0051461003957806394985ddd146100695780639d86698514610092575b600080fd5b610053600480360381019061004e9190610970565b6100d1565b6040516100609190610c07565b60405180910390f35b34801561007557600080fd5b50610090600480360381019061008b919061090b565b610332565b005b34801561009e57600080fd5b506100b960048036038101906100b491906108e2565b6103ce565b6040516100c893929190610bd0565b60405180910390f35b60006002547f000000000000000000000000000000000000000000000000000000000000000073ffffffffffffffffffffffffffffffffffffffff166370a08231306040518263ffffffff1660e01b815260040161012f9190610b77565b60206040518083038186803b15801561014757600080fd5b505afa15801561015b573d6000803e3d6000fd5b505050506040513d601f19601f8201168201806040525081019061017f9190610947565b10156101c0576040517f08c379a00000000000000000000000000000000000000000000000000000000081526004016101b790610ce9565b60405180910390fd5b6101ce600154600254610432565b905060405180606001604052803373ffffffffffffffffffffffffffffffffffffffff1681526020018360ff168152602001600060ff168152506004600083815260200190815260200160002060008201518160000160006101000a81548173ffffffffffffffffffffffffffffffffffffffff021916908373ffffffffffffffffffffffffffffffffffffffff16021790555060208201518160000160146101000a81548160ff021916908360ff16021790555060408201518160000160156101000a81548160ff021916908360ff1602179055509050506103056040518060400160405280601681526020017f72616e646f6d6e65737320726563696576656420257300000000000000000000815250826040516020016102f19190610b30565b604051602081830303815290604052610591565b61032d816040516020016103199190610b30565b60405160208183030381529060405261062d565b919050565b7f000000000000000000000000000000000000000000000000000000000000000073ffffffffffffffffffffffffffffffffffffffff163373ffffffffffffffffffffffffffffffffffffffff16146103c0576040517f08c379a00000000000000000000000000000000000000000000000000000000081526004016103b790610d09565b60405180910390fd5b6103ca82826106c6565b5050565b60046020528060005260406000206000915090508060000160009054906101000a900473ffffffffffffffffffffffffffffffffffffffff16908060000160149054906101000a900460ff16908060000160159054906101000a900460ff16905083565b60007f000000000000000000000000000000000000000000000000000000000000000073ffffffffffffffffffffffffffffffffffffffff16634000aea07f0000000000000000000000000000000000000000000000000000000000000000848660006040516020016104a6929190610c22565b6040516020818303038152906040526040518463ffffffff1660e01b81526004016104d393929190610b92565b602060405180830381600087803b1580156104ed57600080fd5b505af1158015610501573d6000803e3d6000fd5b505050506040513d601f19601f8201168201806040525081019061052591906108b9565b50600061054784600030600080898152602001908152602001600020546107b8565b90506001600080868152602001908152602001600020546105689190610d7c565b6000808681526020019081526020016000208190555061058884826107f4565b91505092915050565b61062982826040516024016105a7929190610cb2565b6040516020818303038152906040527f4b5c4277000000000000000000000000000000000000000000000000000000007bffffffffffffffffffffffffffffffffffffffffffffffffffffffff19166020820180517bffffffffffffffffffffffffffffffffffffffffffffffffffffffff8381831617835250505050610827565b5050565b6106c3816040516024016106419190610c90565b6040516020818303038152906040527f41304fac000000000000000000000000000000000000000000000000000000007bffffffffffffffffffffffffffffffffffffffffffffffffffffffff19166020820180517bffffffffffffffffffffffffffffffffffffffffffffffffffffffff8381831617835250505050610827565b50565b6107246040518060400160405280601681526020017f72616e646f6d6e65737320726563696576656420257300000000000000000000815250836040516020016107109190610b30565b604051602081830303815290604052610591565b60016064826107339190610ef3565b61073d9190610d7c565b6004600084815260200190815260200160002060000160156101000a81548160ff021916908360ff1602179055507f9ca36d0cf9e2536cff89bef38d0d027d642c3f920c8b57868c8431e04e2879f0600460008481526020019081526020016000206040516107ac9190610d29565b60405180910390a15050565b6000848484846040516020016107d19493929190610c4b565b6040516020818303038152906040528051906020012060001c9050949350505050565b60008282604051602001610809929190610b4b565b60405160208183030381529060405280519060200120905092915050565b60008151905060006a636f6e736f6c652e6c6f679050602083016000808483855afa5050505050565b60008151905061085f81611032565b92915050565b60008135905061087481611049565b92915050565b60008135905061088981611060565b92915050565b60008151905061089e81611060565b92915050565b6000813590506108b381611077565b92915050565b6000602082840312156108cb57600080fd5b60006108d984828501610850565b91505092915050565b6000602082840312156108f457600080fd5b600061090284828501610865565b91505092915050565b6000806040838503121561091e57600080fd5b600061092c85828601610865565b925050602061093d8582860161087a565b9150509250929050565b60006020828403121561095957600080fd5b60006109678482850161088f565b91505092915050565b60006020828403121561098257600080fd5b6000610990848285016108a4565b91505092915050565b6109a281610dff565b82525050565b6109b181610dff565b82525050565b6109c081610e1d565b82525050565b6109d76109d282610e1d565b610edf565b82525050565b60006109e882610d44565b6109f28185610d5a565b9350610a02818560208601610e5e565b610a0b81610f82565b840191505092915050565b6000610a2182610d4f565b610a2b8185610d6b565b9350610a3b818560208601610e5e565b610a4481610f82565b840191505092915050565b6000610a5c602b83610d6b565b9150610a6782610fba565b604082019050919050565b6000610a7f601f83610d6b565b9150610a8a82611009565b602082019050919050565b606082016000808301549050610aaa81610e91565b610ab76000860182610999565b50610ac181610eab565b610ace6020860182610b12565b50610ad881610ec5565b610ae56040860182610b12565b5050505050565b610af581610e47565b82525050565b610b0c610b0782610e47565b610ee9565b82525050565b610b1b81610e51565b82525050565b610b2a81610e51565b82525050565b6000610b3c82846109c6565b60208201915081905092915050565b6000610b5782856109c6565b602082019150610b678284610afb565b6020820191508190509392505050565b6000602082019050610b8c60008301846109a8565b92915050565b6000606082019050610ba760008301866109a8565b610bb46020830185610aec565b8181036040830152610bc681846109dd565b9050949350505050565b6000606082019050610be560008301866109a8565b610bf26020830185610b21565b610bff6040830184610b21565b949350505050565b6000602082019050610c1c60008301846109b7565b92915050565b6000604082019050610c3760008301856109b7565b610c446020830184610aec565b9392505050565b6000608082019050610c6060008301876109b7565b610c6d6020830186610aec565b610c7a60408301856109a8565b610c876060830184610aec565b95945050505050565b60006020820190508181036000830152610caa8184610a16565b905092915050565b60006040820190508181036000830152610ccc8185610a16565b90508181036020830152610ce08184610a16565b90509392505050565b60006020820190508181036000830152610d0281610a4f565b9050919050565b60006020820190508181036000830152610d2281610a72565b9050919050565b6000606082019050610d3e6000830184610a95565b92915050565b600081519050919050565b600081519050919050565b600082825260208201905092915050565b600082825260208201905092915050565b6000610d8782610e47565b9150610d9283610e47565b9250827fffffffffffffffffffffffffffffffffffffffffffffffffffffffffffffffff03821115610dc757610dc6610f24565b5b828201905092915050565b600073ffffffffffffffffffffffffffffffffffffffff82169050919050565b600060ff82169050919050565b6000610e0a82610e27565b9050919050565b60008115159050919050565b6000819050919050565b600073ffffffffffffffffffffffffffffffffffffffff82169050919050565b6000819050919050565b600060ff82169050919050565b60005b83811015610e7c578082015181840152602081019050610e61565b83811115610e8b576000848401525b50505050565b6000610ea4610e9f83610f93565b610dd2565b9050919050565b6000610ebe610eb983610fa0565b610df2565b9050919050565b6000610ed8610ed383610fad565b610df2565b9050919050565b6000819050919050565b6000819050919050565b6000610efe82610e47565b9150610f0983610e47565b925082610f1957610f18610f53565b5b828206905092915050565b7f4e487b7100000000000000000000000000000000000000000000000000000000600052601160045260246000fd5b7f4e487b7100000000000000000000000000000000000000000000000000000000600052601260045260246000fd5b6000601f19601f8301169050919050565b60008160001c9050919050565b60008160a01c9050919050565b60008160a81c9050919050565b7f4e6f7420656e6f756768204c494e4b202d2066696c6c20636f6e74726163742060008201527f7769746820666175636574000000000000000000000000000000000000000000602082015250565b7f4f6e6c7920565246436f6f7264696e61746f722063616e2066756c66696c6c00600082015250565b61103b81610e11565b811461104657600080fd5b50565b61105281610e1d565b811461105d57600080fd5b50565b61106981610e47565b811461107457600080fd5b50565b61108081610e51565b811461108b57600080fd5b5056fea2646970667358221220ffa80d5e69bb5440bd7f84e274c75e2ed6d8273e8d23ad9c8ec4ce89432fa3a464736f6c63430008040033",
	"linkReferences": {},
	"deployedLinkReferences": {}
}